:020000040800F2
:1000000048050020D50000086D100008490F0008C1
:1000100000000000000000000000000000000000E0
:100020000000000000000000000000007110000847
:1000300000000000000000006F10000873100008AE
:100040000501000800000000050100080501000886
:100050000501000805010008050100080501000868
:100060000000000005010008450200080501000825
:100070000501000805010008050100080000000056
:100080000501000800000000000000000501000854
:100090000000000005010008050100080501000836
:1000A0000000000005010008000000000501000834
:1000B0000501000800000000000000000501000824
:1000C0000348854600F0ACF8004800478D1700084B
:1000D000480500200C4880F308880C480168090E88
:1000E0000B4A914205D10B480B4901600B480C4962
:1000F00001600C4880470C480047FEE7FEE7FEE73A
:10010000FEE7FEE7FEE700004805002004000000CF
:100110001F00000018100240010000000000014014
:1001200000000000CD100008C100000830B50B46EB
:10013000014600202022012409E00D46D5409D42C1
:1001400005D31D469540491B254695404019154647
:10015000521E002DF1DC30BDF0B51FB40646002064
:1001600082B005464024019100901BE0019922468F
:100170000F46304600F020F8049A059B801A9941FA
:1001800010D310461946224600F039F8361A8F412E
:100190000197224601200021009F00F030F8381816
:1001A0004D4100902046641E0028DFDC019B009832
:1001B0002946324607B0F0BD10B5202A04DB0846B8
:1001C000203AD040002110BD0B46D340D04020241F
:1001D000A21A91400843194610BDD2B201E0027044
:1001E000401C491EFBD270470022F6E710B51346AB
:1001F0000A4604461946FFF7F0FF204610BD10B529
:10020000202A04DB0146203A9140002010BD914095
:1002100020239C1A0346E3401943904010BD000080
:10022000064C0125064E05E0E36807CC2B430C3C49
:1002300098471034B442F7D3FFF746FFD4180008AC
:10024000F418000810B5034800F051F8024801F016
:1002500025F910BD000100208000002010B50446E3
:100260000068054940181421FFF760FF80002064F2
:100270000248E06310BD0000F8FFFDBF000002402F
:1002800030B5056C0124AC40C56B6C6004686360DC
:100290004368102B036803D099600068C26030BDCA
:1002A0009A600068C16030BD704730B501462031AA
:1002B0004B780022022B04D0042383630A700120B0
:1002C00030BD03681C680E25AC431C6003681C68C5
:1002D000640864001C600123056C1C46C06BAC40C4
:1002E00044604B700A70002030BD806B7047F0B4E2
:1002F000C16B0D6801680C680422066C1346B3409C
:100300002B420DD063070BD50B689B0602D40B68FC
:1003100093430B60016C8A40C16B4A60C16A19E06B
:100320000227B74002462F4001232032002F15D06C
:10033000A70713D50C68A40604D40C680A25AC439F
:100340000C605370036C02219940C36B596000210B
:100350001170816A002916D0F0BC08470827B74001
:100360002F4210D024070ED50C680E25AC430C602C
:10037000046C1946A140C46B616083635370002113
:100380001170016BE6E7F0BC7047000070B5040027
:1003900021D0022120462030054641702268116894
:1003A0000E48A3680140606826691843E368334338
:1003B000184363691843A3691843E3691843084362
:1003C00010602046FFF74AFF0021A16301206870FA
:1003D0002970084670BD012070BD00000FC0FFFFEE
:1003E000F8B504468C46203001780025012909D053
:1003F0000126067041780027012905D007700225E3
:100400002846F8BD0220F8BD02214170A76320688C
:10041000016849084900016061462046FFF730FF46
:10042000E06A00282068016802D00E22114306E02D
:100430000A2211430160206801680422914301608F
:100440002068016831430160DAE7000070B50446B6
:1004500000F0D2F80546601C02D004480078241849
:1004600000F0CAF8401BA042FAD370BD080000207B
:10047000FCB500230124A1E027462A469F403A40CC
:1004800073D04D68012D05D0022D03D0112D01D060
:10049000122D16D185680326AC465D00AE46AE40EF
:1004A0006546B543AC46CE687546AE4065462E43BC
:1004B000866046680D79BE43ED06ED0F9D403543DD
:1004C0004560C6685F000325BD40AE46AE43354675
:1004D0008E68BE402E43C6604E68022E01D0122E9A
:1004E00014D1DE08B60036180196366A5D07B446A8
:1004F000EE0E0F25B54000966646AE43B4460D6934
:10050000009EB54066462E43019D2E6206687546E4
:10051000AE430D79AD07AD0FBD40354305604D6865
:10052000ED004AD5284DAE692643AE61AD699E08FF
:10053000ED07ED0F0095254DB6007519AC46AD6879
:100540009E07360F0F27B740BD430927FF06B84265
:1005500001D1002710E01E4FB84201D101270BE066
:100560001C4FB84202D1022706E026E01A4FB842DB
:1005700001D1032700E00527B7402F436546AF6050
:10058000164E35684F689543FF0300D51543356017
:1005900075684F689543BF0300D515437560B5680E
:1005A0004F689543FF0200D51543B560F5684F6865
:1005B0009543BF0200D51543F5605B1C0A681546DC
:1005C000DA4000D058E7FCBD0010024000000140B6
:1005D0000004004800080048000C004800040140E6
:1005E0000069084000D001207047002A01D08161D5
:1005F00070478162704700000148806870470000C2
:1006000008000020024881680278891881607047DC
:100610000800002010B5064801681022114301604F
:10062000002000F007F800F027F8002010BD0000BF
:100630000020024070B504460D4D7D202978C00091
:10064000FFF774FD01460B480068FFF76FFD00F0EF
:1006500047FB002809D1042C07D200222146401E66
:1006600000F02AF800206C6070BD012070BD000011
:10067000080000201400002008B508488169012204
:1006800011438161816911400091C26901040A43EB
:10069000C261C0690840009008BD0000001002401F
:1006A000002805DBC106C90E012088400149086009
:1006B0007047000000E100E010B500F02DFF10BD14
:1006C000F8B505460068394CC00352D5E0690026EC
:1006D000C00007D4E16920040143E161E169014000
:1006E0000126009132480168C90510D401688215BD
:1006F00011430160FFF780FF074604E0FFF77CFF2E
:10070000C01B642824D82A480068C005F6D5206A92
:1007100003273F02384020D06968394081421CD00D
:10072000206A226AB843012109040A432262226A2C
:100730008A4322622062C0070FD0FFF75DFF00905E
:1007400008E0FFF759FF0099411A1A48814201D980
:100750000320F8BD206A8007F3D5206A6968B84392
:1007600008432062002E04D0E16901200007814384
:10077000E1612878C00705D0206BA9688008800057
:10078000084320632878800605D5206B1021884314
:10079000E968084320632868800305D5206B802121
:1007A00088432969084320630020F8BD00100240F7
:1007B0000070004088130000F8B50F46060059D0BD
:1007C0003A4D2868C007C00FB84209D228684008CF
:1007D0004000384328602868C007C00FB84249D19C
:1007E0003068334C81070CD5400704D56068072179
:1007F0000902084360606068F0218843B1680843DB
:1008000060603078C00726D0706801280ED021685B
:1008100002280ED0890700292CDA6168890889002E
:1008200001436160FFF7E8FE00900DE02168890355
:10083000F1E78901EFE7FFF7DFFE0099411A1D4854
:10084000814201D90320F8BD60680C21084071681D
:1008500089008842EFD12868C007C00FB8420BD981
:10086000286840084000384328602868C007C00F47
:10087000B84201D00120F8BD3078400706D5606845
:10088000072109028843F1680843606000F028F8F6
:100890006168094A0906090F515CC84007490860A8
:1008A0000020FFF7C7FE0020F8BD00000020024036
:1008B0000010024088130000BC180008140000203B
:1008C0000448054900684968044A4905490F515CD4
:1008D000C84070471400002000100240CC180008E7
:1008E00010B513A30FCB88B06C460FC414A30FCB65
:1008F0000FC417494B680C201A4602401548042AB9
:1009000013D0082A11D19A02120F6C46A45CC96A4E
:1009100004AA0907090F525CD903890F002319465D
:10092000FFF71AFC214600F0DFFD08B010BD000003
:1009300002030405060708090A0B0C0D0E0F101020
:100940000102030405060708090A0B0C0D0E0F101F
:100950000010024000127A00FEB5040071D0207829
:10096000DC4DC00749D068680007800F012820D0FF
:1009700068680007800F022804D16868C003800FF0
:10098000022816D0012062680004012A18D08100D4
:10099000002A01D0052A17D02A6882432A602868D5
:1009A00088432860606800281BD0FFF725FE0646B4
:1009B00013E02868800320D560680028CED01CE0B2
:1009C000296801432960EDE72A680A432A60F7E7AE
:1009D000FFF712FE801B642870D828688003F7D5C3
:1009E0000BE0FFF709FE064604E0FFF705FE801B5B
:1009F0006428F1D828688003F7D42078012680077E
:100A000000283EDA68680007800F13D06868000786
:100A1000800F022804D16868C003800F012809D024
:100A2000E068002828681DD030432860FFF7E4FD07
:100A300007460CE0286880070CD5E068012800D143
:100A400008E043E1FFF7D8FDC01B0228C4D828689E
:100A50008007F7D52868F82188432169C900084331
:100A600028600EE0400840002860FFF7C5FD0746FB
:100A700004E0FFF7C1FDC01B0228ADD8286880073D
:100A8000F7D42078000722D5E0690028686A0ED0E4
:100A900030436862FFF7B0FD074604E0FFF7ACFDA6
:100AA000C01B022898D8686A8007F7D50FE0400875
:100AB00040006862FFF7A0FD074605E09DE0FFF7F4
:100AC0009BFDC01B022887D8686A8007F7D420786E
:100AD00004274007002860DA00200190E869C00080
:100AE00008D4E969B8060143E961E96901400120D8
:100AF0000091019078480168C90511D401688215F8
:100B000011430160FFF778FD009005E0FFF774FDE9
:100B10000099401A642870D86F480068C005F5D560
:100B2000A06801280AD0002801D0052810D0286A22
:100B3000400840002862286AB84301E0286A304330
:100B40002862A068002812D0FFF756FD00900AE046
:100B5000286A38432862F1E7FFF74EFD0099411AF1
:100B60005E48814249D8286A8007F5D50DE0FFF735
:100B700043FD009006E0FFF73FFD0099411A5748FA
:100B800081423AD8286A8007F5D40198002804D019
:100B9000E869012109078843E8612078C00635D556
:100BA000606901280CD0401D686B23D0384368630E
:100BB000686B400840006863FFF71EFD064622E0B0
:100BC000686B38436863686B30436863FFF714FDF4
:100BD000064604E0FFF710FD801B02285BD8686B17
:100BE0008007F7D5686BF8218843A169C9000843DD
:100BF00068630BE0B8436863F4E74CE0FFF7FCFC84
:100C0000801B022847D8686B8007F7D4206A002829
:100C10005ED069680907890F022942D0012636068D
:100C20000228286805D0B0432860FFF7E5FC044699
:100C300033E0B0432860FFF7DFFC074604E0FFF72E
:100C4000DBFCC01B022826D828688001F7D4E86A9C
:100C5000E16A000900010843E862616AA06A08438A
:100C600069687B22D2039143084368602868304357
:100C70002860FFF7C1FC044604E0FFF7BDFC001B41
:100C8000022808D828688001F7D521E0FFF7B4FCD6
:100C9000001B022801D90320FEBD28688001F5D47D
:100CA00016E00128F8D06868E96A0322D203636A73
:100CB00002409A420AD10907E26A090F914205D11E
:100CC0000F2189040840A16A884201D00120FEBD9D
:100CD0000020FEBD0010024000700040881300009C
:100CE000094910B5401E884201D9012010BD074CAA
:100CF00060610321081F00F00FFC0020A0610720A5
:100D00002061002010BD0000FFFFFF0000E000E0B8
:100D100070B5416F0446856F006882681026120620
:100D2000002A14DA212912D181688022914381603E
:100D3000A06E002808D0FFF7B8FA002804D0A06EF3
:100D4000FFF7D3FA20281DD0204600F0ACFA206827
:100D50008168490614D5222D12D181684022914321
:100D60008160E06E002808D0FFF79FFA002804D0C9
:100D7000E06EFFF7BAFA202804D0204600F083FA8C
:100D8000002070BDE667032070BD704710B50400F9
:100D900003D0606F002802D007E0012010BD0021C1
:100DA00070200155204600F027F824206067206855
:100DB0000168490849000160204600F07DFA0128D9
:100DC000ECD0606A002802D0204600F080F920684C
:100DD00041680122D2029143416020688168082263
:100DE000914381602068016801221143016020461F
:100DF00000F0D2F910BD000070B586B0064614218F
:100E00006846FFF7F1F91D493068884233D11C4923
:100E10008A690120800302438A618A69024005923F
:100E20004A69C00002434A61496900250140032024
:100E300005914002009002200190032003900120C0
:100E40000490092002956946C006FFF711FB0D4882
:100E50000D4C21C42560A560E56025618020656199
:100E600060600948083CFFF791FA002801D0FFF7BD
:100E70001BFAF466666206B070BD000000380140DF
:100E8000001002403000024000010020F8B5044686
:100E9000806F20284DD100290BD0002A09D00123D2
:100EA000A0681B03984206D12069002803D1C80717
:100EB00001D00120F8BD25466035287C012838D0B6
:100EC000012028745820616502530026E66722201D
:100ED000A067E06E002819D017498162E16E1748BB
:100EE000C862E16E16480863E06E13464663676D9C
:100EF00021683A462431E06EFFF772FA002805D0E7
:100F00001020E0672E7420206067D2E72E742068DE
:100F10000168FF22013211430160206881680122CB
:100F20001143816020688168402211438160002064
:100F3000F8BD0220F8BD0000411200087D12000833
:100F4000F911000870477047FEE7000008B508482F
:100F50004169012211434161406910400022009023
:100F600011460A20FFF7A8FB0A20FFF799FB08BDEE
:100F700000100240F0B587B014216846FFF734F93D
:100F8000284842690121C9040A43426142690A4072
:100F900005924269C9000A43426142690A400592CA
:100FA000426949110A43426142690A400592426915
:100FB00049000A4342614069072408401A4F64030C
:100FC0000590002221463846FFF70FFBFF26013629
:100FD000002231461548FFF708FB00940024012544
:100FE00001950294694638460394FFF741FA01944B
:100FF00069460F4800950294FFF73AFA782000906E
:101000000920019469460294C006FFF731FA029460
:1010100069460648009601950394FFF729FA07B040
:10102000F0BD000000100240000800480004004825
:101030000014004810B50C480A4901604B214902D0
:10104000416000218160C16001618161C1610C2248
:10105000016242614162FFF799FE002801D0FFF76B
:1010600023F910BD00380140800000207047704710
:10107000704710B5FFF7C6FA10BD30B595B03021F6
:101080006846FFF7B1F800240C940D940E941421D7
:1010900010A80F94FFF7A8F8022000900125102057
:1010A0000395049008946846FFF756FC07200C90BF
:1010B0000D940E9400210F940CA8FFF77DFB10A84F
:1010C00010951294FFF7FCFA15B030BD704710B5BB
:1010D000818CC90707D001684A6801235B049A43E1
:1010E000836A1A434A60818C890707D501684A6878
:1010F00001231B049A43C36A1A434A60818C49073F
:1011000007D501684A6801239B049A43036B1A437D
:101110004A60818C090707D501684A680123DB030F
:101120009A43436B1A434A60818CC90607D502680B
:10113000916801231B039943836B19439160818C50
:10114000890607D501688A6801235B039A43C36B4C
:101150001A438A60818C490612D503685A680121B6
:101160000905046C8A4322435A60026C8A4207D103
:101170000268516803235B059943436C194351602E
:10118000818C090607D501684A680123DB04806C5D
:101190009A4302434A6010BDF8B500260446C6676C
:1011A000FFF72AFA054620680068124F000709D5A4
:1011B00001212B46002249052046009700F020F926
:1011C00000280DD12068006840070BD501212B466F
:1011D000002289052046009700F012F9002801D06E
:1011E0000320F8BD20206067A067603426740020CB
:1011F000F8BD0000FFFFFF0170B5446A606FA56F86
:101200002168896800260906002906DA212804D108
:1012100052200653204600F046F8206880684006B9
:1012200006D5222D04D15A200653204600F02BF873
:10123000E06F10210843E0672046FFF7A6FD70BD70
:1012400010B501468969406A202914D000225A212C
:101250000A5201680A68FF2301339A430A60016851
:101260008A68520852008A6001688A6840239A435B
:101270008A6020218167FFF765FE10BD10B5406AC6
:10128000FFF761FE10BD01680A68FF2321339A430E
:101290000A6001688A68520852008A6020218167CA
:1012A00000210166704701680A68C0239A430A60FA
:1012B000202141677047000070B5044680682169AD
:1012C000E2690843616900251143226808431168F7
:1012D000444B1940014311602168486803221203FE
:1012E0009043E26810434860A169206A226808437D
:1012F00091680B231B029943014391603A4920688E
:10130000884210D13948006B8007800F11D0012826
:1013100005D0022805D003280AD1022009E00420C4
:1013200007E0082005E03249884201D1002000E0B2
:1013300010200122E169D2032E4E914228D10028CB
:1013400006D0022807D0042817D0082844D11AE074
:10135000FFF7B6FA13E06168274A48088018FEF7DD
:10136000E5FE80B201461039B14235D82149491C09
:1013700001400007400F084321E0FFF7B1FA616820
:1013800040004A08EAE76168012248081204E5E7DC
:10139000002806D0022807D0042813D008281BD123
:1013A00016E0FFF78DFA0FE06168144A480811E073
:1013B000FEF7BCFE80B201461039B1420CD821685C
:1013C000C8600AE0FFF78CFA61684A081018EFE776
:1013D000616848088018EBE70125002020666066F8
:1013E000284670BDF369FFEF00380140001002404D
:1013F00000440040EFFF00000024F40000127A00D7
:10140000FFB581B005460F46044660350A9E38E0B8
:10141000701C36D0FFF7F0F80499401AB04221D87A
:10142000002E1FD02068016849072AD5C069C04333
:10143000000526D401202168C002086220680168E6
:10144000FF22A13291430160206881684908490068
:10145000816020206067A067E06700202874032077
:1014600005B0F0BD20680168FF22A1329143016000
:101470002068816849084900816020206067A06772
:10148000EBE72068C1693846884305D000210398FE
:101490008142BDD00020E3E70121F8E710B5044602
:1014A0000068C069C043C0061AD42046FFF730FC6C
:1014B0002168102008620B4920680A686839904248
:1014C00009D1E06E006840686422101A0870012299
:1014D00008466030427164222046491CFFF7D6FC62
:1014E00010BD000080000020F8B5040C8BB2264629
:1014F00082B25E430D0C1046370C584336048019F7
:101500000021794116466E43370C36048019794123
:1015100026466E438919F8BD8307FF22DB0E9A40E9
:101520008907090E9940002808DB830809489B00B9
:101530001B18186890430843186070470007000F95
:101540000838830804489B001B18D8699043084357
:10155000D861704700E400E000ED00E002E008C858
:10156000121F08C1002AFAD170477047002001E01D
:1015700001C1121F002AFBD17047000070B5012283
:10158000074D0646140221462846FFF72EF830463E
:10159000FEF75CFF002221462846FFF726F870BDC3
:1015A0000004004810B5044609200821C006FFF7D2
:1015B00017F8002805D103480079212801D005201B
:1015C000207010BD0000002010B50446092008213D
:1015D000C006FFF705F8012800D1207010BD0000FB
:1015E00070B5112101706420FFF7C8FF0124084D78
:1015F000640321462846FEF7F3FF002805D00022A9
:1016000021462846FEF7F1FF70BD0122F8E70000F1
:101610000008004810B5044609201021C006FEF756
:10162000DFFF002805D103480079212801D00620DA
:10163000207010BD0000002010B5044609201021C4
:10164000C006FEF7CDFF012801D10220207010BD99
:1016500070B5122101706420FFF790FF0124084D3E
:10166000A40321462846FEF7BBFF002805D0002230
:1016700021462846FEF7B9FF70BD0122F8E70000B9
:101680000008004810B5044609202021C006FEF7D6
:10169000A7FF002805D103480079212801D00720A1
:1016A000207010BD0000002010B504460920202144
:1016B000C006FEF795FF012801D10320207010BD60
:1016C00070B5132101706420FFF758FF0124084D05
:1016D000E40321462846FEF783FF002805D00022B8
:1016E00021462846FEF781FF70BD0122F8E7000081
:1016F0000008004810B5044609204021C006FEF746
:101700006FFF002801D10820207010BD10B50446DD
:1017100009204021C006FEF763FF012801D1042003
:10172000207010BDF8B5174C0646207914272128E3
:1017300005D06420FFF722FF2120207114E009204A
:101740004021C006FEF74CFF002500280ED1E0889E
:101750000D49401C80B2E080884207D9FF20E58017
:101760002D30FFF70BFF25713770F8BD2079212848
:10177000FBD109204021C006FEF732FF0128F4D139
:10178000E580F8BD00000020FEFF0000FEF742FFEC
:10179000FFF773FCFFF7EEFBFFF7D8FBFFF74AFC00
:1017A000C820FEF753FE0D4800680168102211435F
:1017B000016064220A490948FFF768FB094800F004
:1017C00013F80848401C00F02BF80648801C00F075
:1017D00043F80448C01C00F05BF8EFE780000020ED
:1017E000190000200000002010B50178012908D060
:1017F000052909D011290ED0312901D0012101700C
:1018000010BDFFF7CFFE10BD044909792129FAD098
:10181000FFF7E6FE10BDFFF7D7FE10BD0000002069
:1018200010B50178022908D006290CD0122907D05A
:10183000332901D00221017010BDFFF7EBFE10BD6E
:10184000FFF7FAFE10BD034909792129FAD0FFF705
:10185000FFFE10BD0000002010B50178032908D05C
:1018600007290CD0132907D0352901D00321017095
:1018700010BDFFF707FF10BDFFF716FF10BD0349AE
:1018800009792129FAD0FFF71BFF10BD00000020C5
:1018900010B50178042908D008290CD0142907D0E4
:1018A000372901D00421017010BDFFF723FF10BDBF
:1018B000FFF72CFF10BDFFF735FF10BD0000000043
:1018C00000000000010203040607080900000000F0
:1018D00001020304F41800080000002018000000B2
:1018E0005C1500080C1900081800002030050000E5
:1018F0006C1500080000000000000000010000005E
:0C190000040000000000000000127A004B
:04000005080000C12E
:00000001FF
